:100000000C94A9010C94D1010C94D1010C94D10150
:100010000C94D1010C94D1010C94D1010C94D10118
:100020000C94D1010C94D1010C94D1010C94DC01FD
:100030000C94D1010C94D1010C94D1010C94D101F8
:100040000C94A6080C94D1010C94DF0D0C942D0E89
:100050000C94D1010C94D1010C94D1010C94D101D8
:100060000C94D1010C94D10150726573636C616C76
:1000700065723A20004F435232413A200054696D74
:1000800065723220696E207573652E00507265733B
:1000900063616C65723A20004F435231413A20004F
:1000A000616464202723646566696E65205348494E
:1000B000465450574D5F5553455F54494D45523254
:1000C00027206265666F7265202723696E636C75F1
:1000D0006465203C536869667450574D2E683E270E
:1000E00020746F2073776974636820746F2074695B
:1000F0006D657220322E0054696D65723120696E13
:100100002075736520666F7220686967686573740F
:1001100020707265636973696F6E2E0020487A00E3
:1001200050574D206672657175656E63793A20008F
:1001300020487A00496E7465727275707420667218
:10014000657175656E63793A2000436C6F636B204F
:100150006379636C65732070657220696E74657273
:10016000727570743A20004C6F6164206F6620696C
:100170006E746572727570743A2000496E7465729F
:10018000727570742069732064697361626C656450
:100190002E00496E746572727570742069732064E4
:1001A000697361626C65642E00496E746572727564
:1001B000707473206172652064697361626C656438
:1001C0002062656361757365206C6F61642069737B
:1001D00020746F6F20686967682E00202C20776874
:1001E00069636820697320746F6F20686967682E7F
:1001F000004E657720696E74657272757074206C3C
:100200006F616420776F756C642062652000487AA6
:10021000004E657720696E74657272757074206621
:1002200072657175656E6379203D00636C6F636BF9
:10023000206379636C6573004E657720696E746521
:100240007272757074206475726174696F6E203D8E
:1002500000416D6F756E74206F66207265676973FB
:1002600074657273206973206E6F7420696E637297
:1002700065617365642C2062656361757365206CCC
:100280006F616420776F756C64206265636F6D6564
:1002900020746F6F206869676800202C206E756D70
:1002A000626572656420302D00202C207768696CAF
:1002B00065206E756D626572206F66206F75747053
:1002C00075747320697320004572726F723A2054FE
:1002D0007279696E6720746F207772697465206423
:1002E000757479206379636C65206F662070696E20
:1002F000200000000000240027002A000000000069
:10030000250028002B000000000023002600290003
:1003100004040404040404040202020202020303AB
:1003200003030303010204081020408001020408B3
:100330001020010204081020000000070002010044
:100340000003040600000000000000008202990F74
:100350007B0211241FBECFEFD8E0DEBFCDBF11E07E
:10036000A0E0B1E0E2E1F5E202C005900D92AC320E
:10037000B107D9F712E0ACE2B1E001C01D92A9309B
:10038000B107E1F713E0C0E5D3E004C02297FE0116
:100390000E947812CC34D107C9F70E94980B0C94B4
:1003A0007C120C940000FB01DC0102C001900D9254
:1003B00041505040D8F708951F920F920FB60F92F8
:1003C00011242F933F938F939F93EF93FF937894F0
:1003D0002898209141011EBC30913A01E0913F01E3
:1003E000F091400180913B0190913C01E80FF91F91
:1003F0001DC0878128179795868128179795858135
:1004000028179795848128179795838128179795A2
:1004100082812817979581812817979580812817C1
:1004200097950DB407FEFDCF9EBD3150389733230D
:1004300001F70DB407FEFDCF289A809139012817E6
:1004400020F42F5F2093410102C010924101FF91DF
:10045000EF919F918F913F912F910F900FBE0F9031
:100460001F901895EF92FF920F931F938130910583
:10047000A1F56F5F7F4FD1F58CE291E061E070E014
:1004800040E028E030E00BE010E05DE0E52EF12CEC
:100490000E944B04809110019091110101962091CE
:1004A0001201309113016091140170911501AC019A
:1004B000429FC001439F900D529F900D11240E94B6
:1004C0004112709343016093420184E491E062E041
:1004D00046E126E00E942F0409C0892B39F46F5FA2
:1004E0007F4F21F48CE291E00E940B081F910F9145
:1004F000FF90EF90089580E090E06FEF7FEF0E9413
:100500003202089581E090E06FEF7FEF0E943202A7
:1005100008958F929F92AF92BF92CF92DF92EF9207
:10052000FF920F931F93CF93DF934C017A018B01BE
:10053000B401882777FD8095982F0E94F3109B01C6
:10054000AC0160E070E08FE793E40E9458109B01DB
:10055000AC01C801B7010E94A7110E94C0105B0145
:10056000C0E0D0E06B01EE24D7FCE094FE2C0DC07F
:100570008CE291E06C2F4C2F2C2F0C2F0E947E04CC
:10058000C701B6010E94EE082196C815D90584F36B
:100590000EC08CE291E06C2F4C2F2C2F0C2F0E9460
:1005A0007E04C701B6010E94EE08219705C06501CF
:1005B000EE24D7FCE094FE2C1C161D0654F3DF91AC
:1005C000CF911F910F91FF90EF90DF90CF90BF9050
:1005D000AF909F908F9008952F923F924F925F928D
:1005E0006F927F928F929F92AF92BF92CF92DF9243
:1005F000EF92FF920F931F93CF93DF931C017A0129
:100600008B01B101882777FD8095982F0E94F31008
:100610009B01AC0160E070E08FE793E40E9458100A
:100620009B01AC01C801B7010E94A7110E94C01034
:100630002B01AA24BB246B01EE24D7FCE094FE2CF2
:100640000FC08CE291E06A2D40E020E000E00E94C3
:100650007E04C701B6010E94EE080894A11CB11CDB
:10066000A214B30474F310C08CE291E06A2D40E050
:1006700020E000E00E947E04C701B6010E94EE085F
:100680000894A108B10805C06201EE24D7FCE094EB
:10069000FE2C1A141B0444F3CC24DD2432018824DC
:1006A00077FC8094982C0FC08CE291E06A2D4C2D41
:1006B00020E000E00E947E04C401B3010E94EE0825
:1006C0000894C11CD11CC214D30474F310C08CE272
:1006D00091E06A2D4C2D20E000E00E947E04C401D0
:1006E000B3010E94EE080894C108D10805C0320188
:1006F000882477FC8094982C1C141D0444F3EE2469
:10070000FF243201882477FC8094982C0FC08CE25F
:1007100091E06A2D4C2D2E2D00E00E947E04C40134
:10072000B3010E94EE080894E11CF11CE214F304EA
:1007300074F310C08CE291E06A2D4C2D2E2D00E058
:100740000E947E04C401B3010E94EE080894E108EF
:10075000F10805C03201882477FC8094982C1E147F
:100760001F0444F3C0E0D0E03201882477FC809479
:10077000982C0DC08CE291E06A2D4C2D2E2D0C2F63
:100780000E947E04C401B3010E94EE082196C215A6
:10079000D30584F30EC08CE291E06A2D4C2D2E2DF2
:1007A0000C2F0E947E04C401B3010E94EE08219721
:1007B00005C03201882477FC8094982C1C161D06F5
:1007C00054F3DF91CF911F910F91FF90EF90DF9045
:1007D000CF90BF90AF909F908F907F906F905F90E1
:1007E0004F903F902F9008958CE291E060E00E943E
:1007F00069048FEF90E040E050E060EA71E40E940D
:10080000EC028FEF90E040E050E060EA71E40E947B
:10081000890208950F931F9383EE91E040E855E21B
:1008200060E070E00E94680E84E491E00E9436046B
:100830000CE211E0C80161E070E00E940605C80109
:10084000609142010E94BD0760910F01C80170E0F4
:1008500040910E010E9465071F910F910895FC01C0
:1008600066834783208781E0858708950F931F93D0
:100870008C01FC01868160E00E941308F8018681EA
:1008800061E00E945208F8011186128613861486D0
:100890001F910F910895EF92FF920F931F93FC0108
:1008A0007183608342833483238316830583F086B8
:1008B000E7821486138615861686108A1786158A8F
:1008C00081E090E0928B818B1F910F91FF90EF90D0
:1008D0000895DC0120E030E009C05396ED91FC91D1
:1008E0005497E20FF31F60832F5F3F4F1F968D9148
:1008F0009C9150972817390784F30895EF92FF923F
:100900000F931F93CF93DF93DC01E62EF42E122F6B
:10091000C0E0D0E05FC05396ED91FC915497E40F96
:10092000F51F1D968C911D97E89EC00111249083A0
:100930005396ED91FC915497E40FF51F51968D91CC
:100940009C915297E80FF91F1D968C911D97F89E68
:10095000C0011124908351968D919C915297880FDC
:10096000991F840F951F5396ED91FC915497E80FB2
:10097000F91F1D968C911D97189FC001112490831B
:1009800051962D913C915297C901880F991F820F62
:10099000931F840F951F5396ED91FC915497E80F88
:1009A000F91F1D968C911D97089FC00111249083FB
:1009B0006F5F7F4F4F5F5F4F51968D919C91529724
:1009C000681779070CF4A7CF880F991F880F991F14
:1009D000C80FD91F51968D919C915297880F991FDE
:1009E000880F991F8C0F9D1F1F962D913C9150973A
:1009F0002817390724F0AE0160E070E0DDCFDF9109
:100A0000CF911F910F91FF90EF900895FC01728B91
:100A1000618B0895CF92DF92EF92FF920F931F9315
:100A20006C018091810088608093810080918100B9
:100A30008F7E80938100809180008D7F80938000E5
:100A4000809180008E7F8093800080918100816002
:100A500080938100809181008D7F809381008091BF
:100A600081008B7F8093810081E090E0F601928786
:100A7000818763857485882777FD8095982F0E94EC
:100A8000F3107B018C01F601658570E080E090E059
:100A90000E94F11020E030E040E85FE30E94F00F98
:100AA0009B01AC01C801B7010E94A7119B01AC01D9
:100AB00060E074E284E79BE40E9458107B018C01A3
:100AC00020E030E040E050E00E94A31188234CF089
:100AD000C801B70120E030E040E05FE30E94F00F82
:100AE00008C0C801B70120E030E040E05FE30E94A9
:100AF000EF0F0E94C01061507040709389006093A6
:100B0000880080916F00826080936F001F910F9129
:100B1000FF90EF90DF90CF900895AF92BF92CF9269
:100B2000DF92EF92FF920F931F93CF93DF93EC012D
:100B30008091B100877F8093B1008091B000826086
:100B40008093B0008091B0008E7F8093B0006B8561
:100B50007C85882777FD8095982F0E94F3107B0174
:100B60008C016D8570E080E090E00E94F11020E043
:100B700030E040E85FE30E94F00F9B01AC01C80148
:100B8000B7010E94A7119B01AC0160E074E284E709
:100B90009BE40E94581020E030E040E85FE30E94B0
:100BA000EF0F7B018C0120E030E040E050E00E943C
:100BB000A31188234CF0C801B70120E030E040E0E9
:100BC0005FE30E94F00F08C0C801B70120E030E0E9
:100BD00040E05FE30E94EF0F0E94C0106F3F71057D
:100BE00009F044F481E090E09A8789878091B10010
:100BF0008B7F2CC088E0603078076CF488E090E050
:100C00009A8789878091B1008B7F8093B100809112
:100C1000B100826020C080E2603078076CF480E22E
:100C200090E09A8789878091B1008B7F8093B10093
:100C30008091B100826021C06050704494F480E4DF
:100C400090E09A8789878091B10084608093B10099
:100C50008091B1008D7F8093B1008091B1008E7F33
:100C600011C080E890E09A8789878091B100846004
:100C70008093B1008091B1008D7F8093B10080910D
:100C8000B10081608093B10069857A85882777FDFE
:100C90008095982F0E94F3109B01AC0160E074E2F4
:100CA00084E79BE40E9458105B016C016B857C8596
:100CB000882777FD8095982F0E94F3107B018C0187
:100CC0006D8570E080E090E00E94F11020E030E05F
:100CD00040E85FE30E94F00F9B01AC01C801B7013F
:100CE0000E94A7119B01AC01C601B5010E945810DA
:100CF00020E030E040E85FE30E94EF0F7B018C01D1
:100D000020E030E040E050E00E94A31188234CF046
:100D1000C801B70120E030E040E05FE30E94F00F3F
:100D200008C0C801B70120E030E040E05FE30E9466
:100D3000EF0F0E94C0106093B3008091700082603A
:100D400080937000DF91CF911F910F91FF90EF90F2
:100D5000DF90CF90BF90AF9008956F927F928F9267
:100D60009F92AF92BF92CF92DF92EF92FF920F933A
:100D70001F93CF93DF93EC018A816E85882381F0E6
:100D800070E080E090E00E94F11020E030E048ED5B
:100D900052E40E94A71120E030E040EC52E40FC082
:100DA00070E080E090E00E94F11020E030E04CE242
:100DB00052E40E94A71120E030E042EC52E40E948D
:100DC000F00F5B016C016B857C85882777FD809532
:100DD000982F0E94F3107B018C016D8570E080E0FC
:100DE00090E00E94F11020E030E040E85FE30E94D4
:100DF000F00F9B01AC01C801B7010E94A7117B0154
:100E00008C01C601B501A80197010E94A71120E03D
:100E100034E244E75BE40E9458103B014C0126E6B3
:100E200036E646E65FE30E94A311181614F081E04F
:100E30003DC083EE91E068E372E00E94D10B83EE47
:100E400091E0B601A50122E030E00E94DB0D83EEC7
:100E500091E06BE272E00E94140C83EE91E061E19C
:100E600072E00E94D10B83EE91E0B801A70122E06D
:100E700030E00E94DB0D83EE91E06EE072E00E94B4
:100E8000140C83EE91E061EF71E00E94D10B83EED0
:100E900091E0B401A30122E030E00E94DB0D83EE7B
:100EA00091E06BED71E00E94140C80E0DF91CF9136
:100EB0001F910F91FF90EF90DF90CF90BF90AF9078
:100EC0009F908F907F906F900895CF93DF93EC0168
:100ED0007C876B874D878D8161E00E9413088F812D
:100EE00061E00E9413088B8161E00E9413088F81EA
:100EF00060E00E9452088D8160E00E9452088A8161
:100F00008823E9F48CB580628CBD8CB5887F8CBD5C
:100F10008DB58E7F8DBD8CB588608CBD8CB58460A1
:100F20008CBD8AE061E00E9413088AE061E00E94C3
:100F300052088CB580618CBD8CB580648CBDCE01AF
:100F40000E94AD06882379F08881998181309105CE
:100F500021F4CE010E940A050DC0029759F4CE017A
:100F60000E948D0507C083EE91E069EA71E00E945E
:100F7000140CF894DF91CF910895DF92EF92FF92D5
:100F80000F931F93CF93DF93EC01F894DE846E8769
:100F9000E62EFF24B3E0EE0CFF1CBA95E1F7F88AC9
:100FA000EF860E94AD060D2D10E08823E9F08B89B5
:100FB0009C89B7010E9482098B8B9C8B980140E031
:100FC00050E0B90109C0EB89FC89E20FF31F1082E0
:100FD0002F5F3F4F4F5F5F4FCA01860F971F8E15E0
:100FE0009F058CF378940FC0DE86A3E0000F111FDD
:100FF000AA95E1F7188B0F8783EE91E061E572E027
:101000000E94140C7894DF91CF911F910F91FF9063
:10101000EF90DF900895FC0183899489009711F087
:101020000E94000B0895CF93DF93482F50E0CA0130
:101030008C5D9C4FFC013491405F5C4FFA018491C0
:10104000882369F190E0880F991FFC01EE50FD4F55
:10105000A591B491FC01E450FD4FC591D491662354
:1010600051F42FB7F8948C91932F909589238C93FA
:10107000888189230BC0623061F42FB7F8948C917A
:10108000932F909589238C938881832B88832FBFFE
:1010900006C09FB7F8948C91832B8C939FBFDF91F0
:1010A000CF910895482F50E0CA01885C9C4FFC0105
:1010B0002491CA018C5D9C4FFC019491405F5C4F70
:1010C000FA013491332309F440C0222351F1233033
:1010D00071F0243028F42130A1F0223011F514C031
:1010E0002630B1F02730C1F02430D9F404C080910B
:1010F00080008F7703C0809180008F7D8093800077
:1011000010C084B58F7702C084B58F7D84BD09C0BF
:101110008091B0008F7703C08091B0008F7D809365
:10112000B000E32FF0E0EE0FFF1FE450FD4FA5915C
:10113000B4912FB7F894662321F48C91909589236C
:1011400002C08C91892B8C932FBF08951F920F9210
:101150000FB60F9211242F933F938F939F93AF93CA
:10116000BF938091560190915701A0915801B09181
:10117000590130915A010196A11DB11D232F2D5FF8
:101180002D3720F02D570196A11DB11D20935A0136
:101190008093560190935701A0935801B093590141
:1011A0008091520190915301A0915401B091550149
:1011B0000196A11DB11D8093520190935301A093FC
:1011C0005401B0935501BF91AF919F918F913F9181
:1011D0002F910F900FBE0F901F9018959B01AC019F
:1011E0007FB7F8948091520190915301A0915401DE
:1011F000B091550166B5A89B05C06F3F19F00196E7
:10120000A11DB11D7FBFBA2FA92F982F8827860F48
:10121000911DA11DB11D62E0880F991FAA1FBB1F60
:101220006A95D1F7BC012DC0FFB7F89480915201A7
:1012300090915301A0915401B0915501E6B5A89B3E
:1012400005C0EF3F19F00196A11DB11DFFBFBA2FD8
:10125000A92F982F88278E0F911DA11DB11DE2E0A7
:10126000880F991FAA1FBB1FEA95D1F7861B970B02
:10127000885E9340C8F22150304040405040685151
:101280007C4F211531054105510571F6089578947B
:1012900084B5826084BD84B5816084BD85B582607B
:1012A00085BD85B5816085BDEEE6F0E08081816019
:1012B0008083E1E8F0E01082808182608083808119
:1012C00081608083E0E8F0E0808181608083E1EBF1
:1012D000F0E0808184608083E0EBF0E080818160D9
:1012E0008083EAE7F0E0808184608083808182608F
:1012F0008083808181608083808180688083109278
:10130000C10008956F927F928F929F92AF92BF9289
:10131000CF92DF92EF92FF920F931F93CF93DF93C1
:101320008C01009729F4CB010E94630A8C01BBC099
:101330008EEFE82E8FEFF82EE00EF11E4801860E9C
:10134000971E8E149F0408F4ACC0D7014D915C9198
:10135000119746175707B8F04530510508F4A3C058
:10136000CA0104978617970708F49DC04250504061
:10137000461B570BF401419351936D937C93CF011E
:101380000E94000B90C05B01A41AB50A3801640EDC
:10139000751EA0910702B0910802CC24DD24E0E084
:1013A000F0E047C0A615B705A9F5CD91DC911197DE
:1013B000CE0102968A159B0568F1CE018A199B0918
:1013C000029612962C91129713963C91059758F01D
:1013D000F40122833383CA19DB09D183C083D70187
:1013E0006D937C9309C04E5F5F4F4C0F5D1FF701FB
:1013F00051834083C901FC01C114D10431F0D601ED
:101400001396FC93EE9312974EC0F0930802E0936C
:10141000070249C08D919C911197E817F90708F4CC
:10142000FC016D0112968C91129713969C919C0170
:10143000D901109709F0B6CF80910502909106026C
:1014400086159705E9F4E617F707D0F420911A01FD
:1014500030911B012115310541F42DB73EB7809124
:10146000160190911701281B390B82169306C8F4B8
:101470009092060280920502F7017183608313C087
:10148000CB010E94630AEC01009759F0D7014D91FE
:101490005C91B8010E94D301C8010E94000B8E012B
:1014A00002C000E010E0C801DF91CF911F910F91C1
:1014B000FF90EF90DF90CF90BF90AF909F908F9074
:1014C0007F906F9008950F931F93CF93DF93BC018C
:1014D0008230910510F462E070E0E0910702F09133
:1014E0000802A0E0B0E040E050E024C0808191819B
:1014F00086179707D0F08617970771F4828193813A
:10150000109729F013969C938E9312972CC090936A
:1015100008028093070227C04115510519F084176E
:10152000950718F4EF018D01AC01DF0182819381F1
:101530009C01F9013097D1F641155105F9F0CA0126
:10154000861B970B8430910580F48A819B8101155D
:10155000110521F0F8019383828304C0909308025F
:1015600080930702FE01329645C0FE01E80FF91F85
:10157000619371930297998388833CC0809105029F
:1015800090910602892B41F48091180190911901E4
:10159000909306028093050240911A0150911B011D
:1015A0004115510541F44DB75EB7809116019091F8
:1015B0001701481B590B2091050230910602241790
:1015C0003507B0F4CA01821B930B8617970780F08A
:1015D000AB014E5F5F4F8417950750F0420F531FCA
:1015E0005093060240930502F9016193719302C082
:1015F000E0E0F0E0CF01DF91CF911F910F910895CE
:10160000CF93DF939C01009709F48FC0EC012297E0
:101610001B821A82609107027091080261157105A0
:1016200081F488819981820F931F20910502309166
:1016300006022817390739F5D0930602C093050230
:1016400074C0DB0140E050E0AC17BD0708F1BB837C
:10165000AA83FE0121913191E20FF31FAE17BF075C
:1016600079F48D919C911197280F391F2E5F3F4F70
:101670003983288312968D919C9113979B838A833B
:101680004115510571F4D0930802C09307024DC073
:1016900012968D919C911397AD01009711F0DC018A
:1016A000D3CFDA011396DC93CE931297FA012191EE
:1016B0003191E20FF31FCE17DF0769F4888199811A
:1016C000280F391F2E5F3F4FFA01318320838A8113
:1016D0009B8193838283E0E0F0E0DB0112968D91A1
:1016E0009C911397009719F0BC01FD01F6CFAB0157
:1016F0004E5F5F4FDB018D919C91840F951F209170
:101700000502309106022817390779F4309729F439
:10171000109208021092070202C0138212824250F5
:1017200050405093060240930502DF91CF910895F7
:10173000CF93DF930E9447090E940A04CAE1DEE0CA
:101740000E94F4032097E1F30E941A0EF9CFCF9282
:10175000DF92EF92FF920F931F93CF93DF937C0161
:101760006B018A01C0E0D0E00FC0D6016D916D0120
:10177000D701ED91FC910190F081E02DC701099511
:10178000C80FD91F015010400115110571F7CE0186
:10179000DF91CF911F910F91FF90EF90DF90CF904D
:1017A0000895EF92FF920F931F93CF93DF937C01E5
:1017B0008B01C0E0D0E0F8010F5F1F4F64916623FA
:1017C00059F0D701ED91FC910190F081E02DC70116
:1017D0000995C80FD91FEFCFCE01DF91CF911F918F
:1017E0000F91FF90EF900895EF92FF920F931F9348
:1017F0008C01DC01ED91FC910190F081E02D6DE018
:1018000009957C01D801ED91FC910190F081E02DCA
:10181000C8016AE009959C012E0D3F1DC9011F9169
:101820000F91FF90EF900895EF92FF920F931F9307
:101830007C010E94D10B8C01C7010E94F40B9C011A
:10184000200F311FC9011F910F91FF90EF90089554
:10185000CF93DF93EC016115710519F420E030E0BE
:101860000FC0DB010D900020E9F71197A61BB70B05
:10187000E881F9810280F381E02DAD0109959C0199
:10188000C901DF91CF9108954F925F927F928F921D
:101890009F92AF92BF92CF92DF92EF92FF920F93FF
:1018A0001F93DF93CF93CDB7DEB7A1970FB6F89410
:1018B000DEBF0FBECDBF2C01742ECB01223008F449
:1018C0002AE019A231E2C32ED12CCC0EDD1E822ECD
:1018D0009924AA24BB24672D752FA50194010E9489
:1018E000541279018A01C801B701A50194010E942F
:1018F0000E12472D461B0894C108D1084A3014F433
:10190000405D01C0495CF6014083E114F10401052A
:10191000110521F07E2C5F2DC801DDCFC201B6017B
:101920000E94280CA1960FB6F894DEBF0FBECDBF63
:10193000CF91DF911F910F91FF90EF90DF90CF90AB
:10194000BF90AF909F908F907F905F904F90089541
:10195000DC012115310541F4ED91FC910190F081FC
:10196000E02D642F099508950E94440C0895CF92AC
:10197000DF92EF92FF920F931F93CF93DF93EC01CF
:101980006A017B012115310541F4E881F98101905B
:10199000F081E02D642F09951FC02A303105D1F464
:1019A00077FF17C0E881F9810190F081E02D6DE2A9
:1019B00009958C0144275527BA014C195D096E0918
:1019C0007F09CE012AE00E94440C9801280F391F9C
:1019D00004C02AE00E94440C9C01C901DF91CF9110
:1019E0001F910F91FF90EF90DF90CF9008957F921D
:1019F0008F929F92AF92BF92CF92DF92EF92FF921F
:101A00000F931F93CF93DF934C017A018B01722EBA
:101A1000CB01BA01A80197010E940A12882321F084
:101A2000C40160E071E021C0C0E0D0E0570168016E
:101A3000E894D7F8C601B5012FEF3FEF4FE75FE716
:101A40000E940A12882351F4C601B5012FEF3FEF1F
:101A50004FE75FE70E945410181614F0C1E0D0E081
:101A6000219739F0C40164E071E00E94280CEC0178
:101A700093C0C801B7012FEF3FEF4FE75FE40E942B
:101A8000A311181654F0C801B7012FEF3FEF4FE72D
:101A90005FEC0E945410882324F4C40168E071E0D4
:101AA000E4CFC801B70120E030E040E050E00E9400
:101AB000541087FD03C0C0E0D0E00EC0D401ED910A
:101AC000FC910190F081E02DC4016DE20995EC01DB
:101AD00017FB109517F9109520E030E040E05FE328
:101AE000DD240BC0CA01B90120E030E040E251E43E
:101AF0000E9458109B01AC01D394D71498F3C801ED
:101B0000B7010E94F00F5B016C010E94C5107B01C0
:101B10008C01C401B801A7012AE030E00E94A80CA2
:101B2000C80FD91F772039F0C4016CE071E00E9422
:101B3000280CC80FD91FC801B7010E94F1109B01E2
:101B4000AC01C601B5010E94EF0F24C020E030E0D7
:101B500040E251E40E94A7117B018C010E94C01059
:101B60005B016C01CC24B7FCC094DC2CC401B60131
:101B7000A5012AE030E00E94B70CC80FD91FC601AA
:101B8000B5010E94F3109B01AC01C801B7010E948E
:101B9000EF0F7A947720D1F6CE01DF91CF911F918C
:101BA0000F91FF90EF90DF90CF90BF90AF909F90FC
:101BB0008F907F9008950E94F70C089508951F92CA
:101BC0000F920FB60F9211242F933F934F938F9341
:101BD0009F93EF93FF938091C00082FD1DC04091C1
:101BE000C60020919B0130919C012F5F3F4F2F73C6
:101BF000307080919D0190919E012817390771F0F6
:101C0000E0919B01F0919C01E55AFE4F4083309397
:101C10009C0120939B0102C08091C600FF91EF912F
:101C20009F918F914F913F912F910F900FBE0F90E9
:101C30001F901895E091EF01F091F001E05CFF4FEB
:101C40008191919120813181821B930B8F739070D0
:101C5000892B11F00E94DE0D08951F920F920FB68E
:101C60000F9211242F933F938F939F93EF93FF93A2
:101C70002091DF013091E0018091E1019091E2013A
:101C80002817390731F48091C1008F7D8093C100FE
:101C900014C0E091E101F091E201E156FE4F208194
:101CA0008091E1019091E20101968F739070909381
:101CB000E2018093E1012093C600FF91EF919F9193
:101CC0008F913F912F910F900FBE0F901F901895FD
:101CD000AF92BF92DF92EF92FF920F931F93CF9339
:101CE000DF93EC017A018B01DD24403081EE58074F
:101CF00080E0680780E0780711F0DD24D39491E05C
:101D0000A92EB12CEC89FD89DD2069F0C50108A060
:101D100002C0880F991F0A94E2F7808360E079E09F
:101D20008DE390E005C0108260E874E88EE190E0F9
:101D3000A80197010E945412215030404040504069
:101D4000569547953795279580E12030380720F044
:101D5000DD2011F0DD24D6CFE889F9893083EA89C6
:101D6000FB89208319A2EE89FF89408121E030E0C0
:101D7000C9010C8C02C0880F991F0A94E2F7482B06
:101D80004083EE89FF894081C9010D8C02C0880F14
:101D9000991F0A94E2F7482B4083EE89FF8940811E
:101DA000C9010E8C02C0880F991F0A94E2F7482BD4
:101DB0004083EE89FF8980810F8C02C0220F331F80
:101DC0000A94E2F7209528232083DF91CF911F9179
:101DD0000F91FF90EF90DF90BF90AF900895DC01DE
:101DE0001C96ED91FC911D97E05CFF4F2191319184
:101DF00080819181281B390B2F733070C9010895A0
:101E0000DC011C96ED91FC911D97E05CFF4F208159
:101E10003181E054F040DF01AE5BBF4F8D919C916A
:101E200011972817390719F42FEF3FEF07C08D914D
:101E30009C91E80FF91F8081282F30E0C901089597
:101E4000DC011C96ED91FC911D97E05CFF4F208119
:101E50003181E054F040DF01AE5BBF4F8D919C912A
:101E600011972817390719F42FEF3FEF10C08D9104
:101E70009C911197E80FF91F20818D919C911197EA
:101E800001968F73907011969C938E9330E0C901E8
:101E90000895DC0191968C919197882339F054969E
:101EA000ED91FC915597808186FFF9CF91961C9218
:101EB0000895CF93DF93EC01EE85FF85E05CFF4F43
:101EC00020813181E054F0402F5F3F4F2F733070FD
:101ED000DF01AE5BBF4F8D919C9111972817390799
:101EE000D1F3E05CFF4F80819181E054F040E80F36
:101EF000F91F6083EE85FF85E05CFF4F318320830F
:101F0000EE89FF89208181E090E00F8C02C0880F6C
:101F1000991F0A94E2F7282B208381E089A3EC899A
:101F2000FD8980818064808381E090E0DF91CF91A2
:101F300008951092E6011092E50188EE93E0A0E08A
:101F4000B0E08093E7019093E801A093E901B0939A
:101F5000EA0180E291E09093E4018093E3018BE554
:101F600091E09093F0018093EF018FE991E09093DD
:101F7000F2018093F10185EC90E09093F40180935D
:101F8000F30184EC90E09093F6018093F50180ECEE
:101F900090E09093F8018093F70181EC90E09093AA
:101FA000FA018093F90182EC90E09093FC01809318
:101FB000FB0186EC90E09093FE018093FD0184E0AC
:101FC0008093FF0183E08093000287E08093010209
:101FD00085E08093020281E08093030208955058C7
:101FE000BB27AA270ED075C166D130F06BD120F087
:101FF00031F49F3F11F41EF45BC10EF4E095E7FB52
:1020000051C1E92F77D180F3BA17620773078407AC
:10201000950718F071F49EF58FC10EF4E0950B2E24
:10202000BA2FA02D0B01B90190010C01CA01A0012A
:102030001124FF27591B99F0593F50F4503E68F185
:102040001A16F040A22F232F342F4427585FF3CFC6
:10205000469537952795A795F0405395C9F77EF497
:102060001F16BA0B620B730B840BBAF09150A1F0E0
:10207000FF0FBB1F661F771F881FC2F70EC0BA0F66
:10208000621F731F841F48F4879577956795B795EE
:10209000F7959E3F08F0B3CF9395880F08F09927E6
:1020A000EE0F979587950895D9D008F481E00895AB
:1020B0000CD00FC107D140F0FED030F021F45F3FCB
:1020C00019F0F0C0511139C1F3C014D198F399231C
:1020D000C9F35523B1F3951B550BBB27AA276217EC
:1020E0007307840738F09F5F5F4F220F331F441F31
:1020F000AA1FA9F333D00E2E3AF0E0E830D0915069
:102100005040E695001CCAF729D0FE2F27D0660F55
:10211000771F881FBB1F261737074807AB07B0E894
:1021200009F0BB0B802DBF01FF2793585F4F2AF0AA
:102130009E3F510568F0B6C000C15F3FECF3983E8A
:10214000DCF3869577956795B795F7959F5FC9F707
:10215000880F911D9695879597F90895E1E0660F90
:10216000771F881FBB1F621773078407BA0720F009
:10217000621B730B840BBA0BEE1F88F7E095089572
:1021800004D06894B111D9C00895BCD088F09F578D
:1021900090F0B92F9927B751A0F0D1F0660F771FB3
:1021A000881F991F1AF0BA95C9F712C0B13081F093
:1021B000C3D0B1E00895C0C0672F782F8827B85FDB
:1021C00039F0B93FCCF3869577956795B395D9F7F4
:1021D0003EF490958095709561957F4F8F4F9F4FFE
:1021E0000895E89409C097FB3EF49095809570950A
:1021F00061957F4F8F4F9F4F9923A9F0F92F96E953
:10220000BB279395F695879577956795B795F111C7
:10221000F8CFFAF4BB0F11F460FF1BC06F5F7F4F64
:102220008F4F9F4F16C0882311F096E911C0772376
:1022300021F09EE8872F762F05C0662371F096E87F
:10224000862F70E060E02AF09A95660F771F881F4E
:10225000DAF7880F9695879597F90895990F0008F2
:10226000550FAA0BE0E8FEEF16161706E807F90768
:10227000C0F012161306E407F50798F0621B730B03
:10228000840B950B39F40A2661F0232B242B252B84
:1022900021F408950A2609F4A140A6958FEF811D27
:1022A000811D089597F99F6780E870E060E00895C8
:1022B0009FEF80EC089500240A941616170618065E
:1022C0000906089500240A9412161306140605063A
:1022D0000895092E0394000C11F4882352F0BB0FCB
:1022E00040F4BF2B11F460FF04C06F5F7F4F8F4F2E
:1022F0009F4F089557FD9058440F551F59F05F3F69
:1023000071F04795880F97FB991F61F09F3F79F017
:1023100087950895121613061406551FF2CF469599
:10232000F1DF08C0161617061806991FF1CF86951B
:102330007105610508940895E894BB2766277727FF
:10234000CB0197F908958ADF08F48FEF08950BD039
:10235000C0CFB1DF28F0B6DF18F0952309F0A2CF87
:10236000A7CF1124EACFC6DFA0F3959FD1F3950F35
:1023700050E0551F629FF001729FBB27F00DB11D09
:10238000639FAA27F00DB11DAA1F649F6627B00D99
:10239000A11D661F829F2227B00DA11D621F739F82
:1023A000B00DA11D621F839FA00D611D221F749F90
:1023B0003327A00D611D231F849F600D211D822FD7
:1023C000762F6A2F11249F5750408AF0E1F088231E
:1023D0004AF0EE0FFF1FBB1F661F771F881F91502B
:1023E0005040A9F79E3F510570F05CCFA6CF5F3FEC
:1023F000ECF3983EDCF3869577956795B795F7955E
:10240000E7959F5FC1F7FE2B880F911D96958795E5
:1024100097F9089523DF880B990B0895629FD001E7
:10242000739FF001829FE00DF11D649FE00DF11D8F
:10243000929FF00D839FF00D749FF00D659FF00D3E
:102440009927729FB00DE11DF91F639FB00DE11D2B
:10245000F91FBD01CF0111240895AA1BBB1B51E137
:1024600007C0AA1FBB1FA617B70710F0A61BB70B04
:10247000881F991F5A95A9F780959095BC01CD01A9
:10248000089597FB092E07260AD077FD04D0E5DFD3
:1024900006D000201AF4709561957F4F0895F6F7E5
:1024A000909581959F4F0895A1E21A2EAA1BBB1B00
:1024B000FD010DC0AA1FBB1FEE1FFF1FA217B30710
:1024C000E407F50720F0A21BB30BE40BF50B661F26
:1024D000771F881F991F1A9469F7609570958095EA
:1024E00090959B01AC01BD01CF010895EE0FFF1F38
:1024F0000590F491E02D099413E0C0E5D3E004C009
:10250000FE010E9478122296C235D107C9F7F894CD
:02251000FFCFFB
:102512006E616E00696E66006F7666002E00FF4B7C
:102522001E000400080080000902000000000000F4
:0C253200590FA70BEF0E200F000F490FF0
:00000001FF
